:020000040800F2
:10000000B016002021020008C1140008691300087E
:10001000BD1400088703000839170008000000001D
:10002000000000000000000000000000890100083E
:100030008B03000800000000CD0100082115000816
:100040003B0200083B0200083B0200083B0200089C
:100050003B0200083B0200083B0200083B0200088C
:100060003B0200083B0200083B0200083B0200087C
:100070003B0200083B0200083B0200083B0200086C
:100080003B0200083B0200083B0200083B0200085C
:100090003B0200083B0200083B0200083B0200084C
:1000A0003B020008B91500083B0200083B020008AB
:1000B0003B0200083B0200083B0200083B0200082C
:1000C0003B0200083B0200083B0200083B0200081C
:1000D0003B0200083B0200083B0200083B0200080C
:1000E0008D0300083B0200083B02000800F002F804
:1000F00000F03AF80AA090E8000C82448344AAF188
:100100000107DA4501D100F02FF8AFF2090EBAE885
:100110000F0013F0010F18BFFB1A43F0010318473B
:100120005025000070250000103A24BF78C878C11F
:10013000FAD8520724BF30C830C144BF04680C60ED
:10014000704700000023002400250026103A28BF35
:1001500078C1FBD8520728BF30C148BF0B60704739
:100160001FB51FBD10B510BD00F0D6F81146FFF742
:10017000F7FF01F0FFFA00F0F4F803B4FFF7F2FF25
:1001800003BC00F0F9F80000224B19680868B0E8D9
:10019000F00F80F30988BFF36F8F4FF0000080F3FA
:1001A00011884EF00D0E70470000000006480068F0
:1001B000006880F3088862B661B6BFF34F8FBFF363
:1001C0006F8F00DF00BF00BF08ED00E0EFF3098094
:1001D000BFF36F8F0F4B1A6820E9F00F106008B55E
:1001E0004FF0050080F31188BFF34F8FBFF36F8F7F
:1001F00001F08CFF4FF0000080F31188BDE808404B
:1002000019680868B0E8F00F80F30988BFF36F8FB2
:10021000704700BF18000020EFF305807047000012
:100220000948804709480047FEE7FEE7FEE7FEE78A
:10023000FEE7FEE7FEE7FEE7FEE7FEE704480549C6
:10024000054A064B70470000B7150008ED0000088E
:10025000B0100020B0160020B0120020B012002014
:1002600010B5203AC0F00B80B1E81850203AA0E851
:100270001850B1E81850A0E81850BFF4F5AF5FEA85
:10028000027C24BFB1E81850A0E8185044BF18C938
:1002900018C0BDE810405FEA827C24BF51F8043BDF
:1002A00040F8043B08BF7047D20728BF31F8023B33
:1002B00048BF11F8012B28BF20F8023B48BF00F8C7
:1002C000012B70474FF0000200B513469446964646
:1002D000203922BFA0E80C50A0E80C50B1F1200159
:1002E000BFF4F7AF090728BFA0E80C5048BF0CC007
:1002F0005DF804EB890028BF40F8042B08BF704765
:1003000048BF20F8022B11F0804F18BF00F8012BD6
:100310007047704770477047754600F029F8AE4641
:1003200005006946534620F00700854618B020B501
:10033000FFF784FFBDE820404FF000064FF00007B4
:100340004FF000084FF0000B21F00701AC46ACE87D
:10035000C009ACE8C009ACE8C009ACE8C0098D46EA
:1003600070470446AFF300802046FFF706FF000009
:10037000004870474C10002001491820ABBEFEE732
:1003800026000200704700BFFEE7704710B54FF42B
:10039000005000F005F810BD72B600BFFEE77047D0
:1003A00010B5044604480068204020B102480460AB
:1003B0002046FFF7F4FF10BD140401402DE9F84773
:1003C0000346002294466EE14FF0010808FA02F459
:1003D000D1F8008008EA0400A0427DD1DFF8DCA259
:1003E000D1F80480A8EB0A09D0453AD014DCB8F162
:1003F000030F50D009DCB8F1000F31D0B8F1010F74
:100400001CD0B8F1020F49D120E0B8F1110F18D07B
:10041000B8F1120F42D11EE0B9F5881F25D006DCD5
:10042000B9F5803F20D0B9F5801F37D11AE0B9F572
:10043000001F18D0B9F5041F30D117E0D1F80CC057
:100440002DE0D1F80C8008F1040C28E0D1F80C80E4
:1004500008F1080C23E0D1F80C8008F10C0C1EE028
:1004600000BF00BF00BF00BF00BF00BFD1F80880C1
:10047000B8F1000F02D14FF0040C0BE0D1F8088066
:10048000B8F1010F03D14FF0080C1C6102E04FF0EE
:10049000080C5C6103E04FF0000C00E000BF00BFFF
:1004A000FF2801D8984601E003F104084646FF28DA
:1004B00002D84FEA820803E0A2F108084FEA880850
:1004C0004746D6F800804FF00F0909FA07F928EAE5
:1004D00009080CFA07F900E088E048EA0908C6F8BC
:1004E0000080D1F8048008F08058B8F1805F7DD199
:1004F00000BFDFF8CC81D8F8188048F00108DFF899
:10050000C091C9F81880C846D8F8188008F00108CA
:10051000CDF8008000BF00BF4FEAB9384FEA92091A
:1005200058F829504FEA82784FEA18794FF00F08AF
:1005300008FA09F825EA0805DFF88881434502D161
:100540004FF0000816E0DFF88081434502D14FF0FC
:1005500001080FE0DFF87481434502D14FF0020833
:1005600008E0DFF86C81434502D14FF0030801E059
:100570004FF004084FEA82794FEA197908FA09F82E
:1005800048EA0505DFF84C814FEA920948F82950FE
:10059000D1F8048008F48018B8F5801F0AD1DFF87C
:1005A0003881D8F8008048EA0008DFF82C91C9F8B3
:1005B000008009E0DFF82081D8F8008028EA0008F0
:1005C000DFF81491C9F80080D1F8048008F400180D
:1005D000B8F5001F10D1DFF8008108F10408D8F841
:1005E000008048EA0008DFF8F09000E05AE009F1E6
:1005F0000409C9F800800DE0DFF8DC8008F1040888
:10060000D8F8008028EA0008DFF8CC9009F1040946
:10061000C9F80080D1F8048008F40038B8F5003F2C
:100620000ED1DFF8B480A8F10408D8F8008048EAB9
:100630000008DFF8A490A9F10409C9F800800DE0D2
:10064000DFF89480A8F10408D8F8008028EA0008B0
:10065000DFF88490A9F10409C9F80080D1F804807A
:1006600008F48038B8F5803F0ED1DFF86C80A8F12F
:100670000808D8F8008048EA0008DFF85C90A9F183
:100680000809C9F800800DE0DFF84C80A8F10808DF
:10069000D8F8008028EA0008DFF83C90A9F10809A2
:1006A000C9F80080521CD1F8008028FA02F8B8F18D
:1006B000000F7FF489AEBDE8F8870000000011103C
:1006C0000010024000080140000C014000100140F1
:1006D0000014014008000140080401400AB1016112
:1006E00001E00B0403617047014800687047000097
:1006F00008000020034800680349097808440149BC
:1007000008607047080000201000002010B508485D
:10071000006840F0100006490860032000F0D8F897
:100720000F2000F007F800F055F8002010BD000081
:1007300000200240F0B587B00446002600270025BF
:1007400000BF1F48806940F400601D498861084669
:10075000806900F40060009000BF00BF01A902A8FA
:1007600000F090F900F0C6F906461648B6FBF0F026
:10077000471E15481549086040F2E7311348C1602B
:100780004760002101618160816100F02FFC054616
:1007900095B90E4800F05EFC05466DB9192000F0D1
:1007A00049F8102C07D200222146192000F052F8F7
:1007B0000748046000E00125284607B0F0BD0000AE
:1007C0000010024040420F00002C014014030020A2
:1007D0000C00002008B500BF1448806940F00100FB
:1007E000124988610846806900F00100009000BF4E
:1007F00000BF00BF0846C06940F08050C86108468D
:10080000C06900F08050009000BF00BF00220F219F
:10081000901E00F01FF800BF0549486820F0E06016
:1008200040F08060486000BF08BD0000001002403A
:100830000000014001460846002809DB00F01F03C4
:1008400001229A4043099B0003F1E023C3F80021F1
:1008500000BF70472DE9F05F80460D461646002721
:1008600000F06CFF074639462A46334601F0070080
:10087000C0F1070ABAF1040F02D94FF0040A01E0EF
:10088000C0F1070AD14600F1040ABAF1070F02D2FB
:100890004FF0000A01E0A0F1030AD4464FF0010A2C
:1008A0000AFA09FAAAF1010A0AEA020A0AFA0CFA91
:1008B0004FF0010B0BFA0CFBABF1010B0BEA030B36
:1008C0004AEA0B042146404600F040FFBDE8F09F95
:1008D00000BF00F00702064B19684FF6FF031940EE
:1008E000044B0B4343EA0221014B196000BF7047E0
:1008F0000CED00E00000FA0570B504460D460CB999
:10090000012070BD5A48006800F00700A8420ED2CE
:100910005748006820F007002843554908600846FA
:10092000006800F00700A84201D00120E9E7207824
:1009300000F0020002281DD1207800F004000428F5
:1009400005D14C48406840F4E0604A49486020784E
:1009500000F00800082805D14648406840F460507F
:10096000444948604348406820F0F000A1680843CB
:1009700040494860207800F0010078B360680128A1
:1009800006D13C48006800F4003090B90120B8E777
:100990006068022806D13748006800F0007040B94E
:1009A0000120AEE73348006800F0020008B90120DA
:1009B000A7E73048406820F00300616808432D49EC
:1009C0004860FFF791FE064609E0FFF78DFE801BA9
:1009D00041F28831884202D9032092E707E0254896
:1009E000406800F00C006168B0EB810FEDD1204849
:1009F000006800F00700A8420ED91D48006820F0EA
:100A0000070028431A4908600846006800F00700FC
:100A1000A84201D0012074E7207800F004000428E7
:100A200007D11448406820F4E060E16808431149A8
:100A30004860207800F00800082808D10D48406878
:100A400020F46050216940EAC1000A49486000F082
:100A500061F808494968C1F30311074A515CC8406D
:100A60000649086006480068FFF764FE002048E772
:100A700000200240001002403E2600081400002022
:100A80000C0000200F2202600D4A526802F003029F
:100A900042600B4A526802F0F0028260084A5268D3
:100AA00002F4E062C260064A526802F46052D20860
:100AB0000261044A126802F007020A6070470000EF
:100AC000001002400020024001480068704700000A
:100AD0001400002000B5FFF7F7FF04494968C1F38F
:100AE0000221034A515CC84000BD000000100240D2
:100AF0004E26000800B5FFF7E7FF04494968C1F337
:100B0000C221034A515CC84000BD000000100240F1
:100B10004E26000870B5002100220024002300208A
:100B2000134D696801F00C05F5B1042D02D0082DB4
:100B300019D101E00F4819E00F4DC1F38346AB5DB9
:100B400001F4803555B10A4D6D68C5F340450B4E33
:100B5000725D084D5D43B5FBF2F402E0084D03FB06
:100B600005F4204602E000BF024800BF00BF70BD90
:100B70000010024000127A002C2600083C260008D3
:100B800000093D00F8B504460CB90120F8BD2078F5
:100B900000F00100002878D0F848406800F00C0010
:100BA00004280CD0F548406800F00C00082811D14A
:100BB000F248406800F48030B0F5803F0AD1EF4839
:100BC000006800F4003000285FD0606800285CD125
:100BD0000120DBE700BF6068B0F5803F06D1E74841
:100BE000006840F48030E549086028E0606858B942
:100BF000E248006820F48030E04908600846006858
:100C000020F4802008601AE06068B0F5A02F0BD1B6
:100C1000DA48006840F48020D84908600846006837
:100C200040F4803008600AE0D448006820F4803046
:100C3000D24908600846006820F48020086000BFA0
:100C4000606888B1FFF750FD054606E0FFF74CFDF0
:100C5000401B642801D9032098E7C848006800F4C5
:100C600000300028F2D010E0FFF73EFD054606E018
:100C7000FFF73AFD401B642801D9032086E7BF48EF
:100C8000006800F400300028F2D1207800F0020063
:100C9000022857D1B948406800F00C0050B1B7485D
:100CA000406800F00C00082818D1B448406800F4EF
:100CB000803098B9B148006800F0020020B1206986
:100CC000012801D0012061E7AC48006820F0F8005D
:100CD000616940EAC100A949086033E02069E8B1D0
:100CE0000120A7490860FFF7FFFC054606E0FFF773
:100CF000FBFC401B022801D9032047E79F480068FE
:100D000000F002000028F2D09C48006820F0F800B3
:100D1000616940EAC1009949086013E000209849E0
:100D20000860FFF7E1FC054606E0FFF7DDFC401B2D
:100D3000022801D9032029E79048006800F002004A
:100D40000028F2D1207800F0080008282DD1A069F1
:100D5000B8B101208B490860FFF7C6FC054606E0E4
:100D6000FFF7C2FC401B022801D903200EE783488D
:100D7000406A00F002000028F2D0012000F0A2FB3F
:100D800013E000207F490860FFF7AEFC054606E04F
:100D9000FFF7AAFC401B022801D90320F6E677489A
:100DA000406A00F002000028F2D1207800F0040030
:100DB000042873D100277148C06900F0805070B9D1
:100DC00000BF6E48C06940F080506C49C861084659
:100DD000C06900F08050009000BF00BF01276A4842
:100DE000006800F48070B0B96748006840F4807013
:100DF00065490860FFF778FC054606E0FFF774FCDC
:100E0000401B642801D90320C0E65F48006800F455
:100E100080700028F2D000BFE068012806D1574852
:100E2000006A40F001005549086227E0E06858B9BF
:100E30005248006A20F00100504908620846006AE2
:100E400020F00400086219E0E06805280BD14B4847
:100E5000006A40F00400494908620846006A40F010
:100E6000010008620AE04548006A20F00100434999
:100E700008620846006A20F00400086200BFE068CB
:100E8000A0B1FFF731FC054609E0FFF72DFC401B40
:100E900041F28831884202D9032077E622E03748C0
:100EA000006A00F002000028EFD012E0FFF71CFCFF
:100EB000054608E0FFF718FC401B41F288318842E4
:100EC00001D9032062E62D48006A00F002000028E4
:100ED000F0D1012F05D12948C06920F08050274961
:100EE000C86100BFE069C8B32448406800F00C0046
:100EF000082860D0E069022848D10020204908660F
:100F0000FFF7F2FB054606E0FFF7EEFB401B022869
:100F100001D903203AE61948006800F00070002863
:100F2000F2D1206AB0F5803F07D11448406820F420
:100F30000030A168084311494860D4E9080108431A
:100F40000E49496821F4741108430C494860012096
:100F50000B490866FFF7C8FB054607E03DE0FFF7D1
:100F6000C3FB401B022801D903200FE60348006899
:100F700000F000700028F2D02FE0000000100240C6
:100F800000004242800442420070004000201449A8
:100F90000866FFF7A9FB054606E0FFF7A5FB401B27
:100FA000022801D90320F1E50E48006800F0007026
:100FB0000028F2D111E0E069012800D1E6E50948F6
:100FC000466806F48031206A814204D106F470112B
:100FD000606A814201D00120D8E50020D6E50000FA
:100FE00000004242001002407047704710B50446AE
:100FF0000CB9012010BD94F83D0028B9002084F8F8
:101000003C00204600F025F8022084F83D00211D18
:10101000206800F0D9FA012084F8460000BF84F867
:101020003E0001213F20015540200155412001553E
:1010300000BF00BF012084F8420043200155442036
:1010400001554520015500BF012084F83D000020D6
:10105000D0E77047014691F83D00012801D00120FA
:101060007047022081F83D000868C06840F0010028
:101070000B68D860124B086898420BD00868B0F132
:10108000804F07D00F4B0868984203D00E4B08687A
:1010900098420CD10868806800F00702062A0CD03C
:1010A0000868006840F001000B68186005E00868F7
:1010B000006840F001000B6818600020D0E70000D5
:1010C000002C01400004004000080040704710B5AB
:1010D000044620680069C0F34000D8B12068C068A9
:1010E000C0F34000B0B16FF0020021680861012038
:1010F00020772068806900F0030018B12046FFF7D0
:10110000E5FF05E0204600F0ADF8204600F0ABF822
:101110000020207720680069C0F38000D8B12068E3
:10112000C068C0F38000B0B16FF0040021680861AE
:10113000022020772068806900F4407018B12046B2
:10114000FFF7C4FF05E0204600F08CF8204600F0D1
:101150008AF80020207720680069C0F3C000D8B169
:101160002068C068C0F3C000B0B16FF0080021680B
:101170000861042020772068C06900F0030018B1DE
:101180002046FFF7A3FF05E0204600F06BF820465D
:1011900000F069F80020207720680069C0F3001093
:1011A000D8B12068C068C0F30010B0B16FF0100073
:1011B00021680861082020772068C06900F4407029
:1011C00018B12046FFF782FF05E0204600F04AF8FC
:1011D000204600F048F8002020772068006900F0E1
:1011E000010058B12068C06800F0010030B16FF014
:1011F000010021680861204600F036F82068006987
:10120000C0F3C01058B12068C068C0F3C01030B13E
:101210006FF08000216808612046FFF7E5FE206836
:101220000069C0F3801058B12068C068C0F3801016
:1012300030B16FF0400021680861204600F020F8CE
:1012400020680069C0F3401058B12068C068C0F33E
:10125000401030B16FF02000216808612046FFF790
:10126000C4FE10BD7047704710B50446034920689E
:10127000884201D1FFF73EFA10BD0000002C01406A
:10128000704710B504460CB9012010BDA06900B12B
:1012900000E000BF94F8410028B9002084F8400025
:1012A000204600F029F8242084F841002068C06816
:1012B00020F400502168C860204600F0BFF9206883
:1012C000006920F49040216808612068406920F09E
:1012D0002A00216848612068C06840F400502168F5
:1012E000C86000206064202084F8410084F8420037
:1012F0000020606300BFC8E710B586B00446002038
:10130000029003900490059014492068884223D1EC
:1013100000BF1348C06940F400301149C861084655
:10132000C06900F40030019000BF00BF00BF084654
:10133000806940F0040088610846806900F004007C
:10134000019000BF00BF0C20029002200390059086
:1013500002A90448FFF732F806B010BD004400406F
:10136000001002400008014000BFFEE700B58FB04A
:101370001C220C4908A8FEF773FF002108A800F002
:101380001FFA094908601C2206491C3101A8FEF712
:1013900067FF002101A800F013FA044908600FB0AC
:1013A00000BD0000F425000800000020040000201B
:1013B00000B585B00020019002900390049000BF1A
:1013C0002C48806940F010002A49886108468069ED
:1013D00000F01000009000BF00BF00BF0846806909
:1013E00040F0200088610846806900F020000090ED
:1013F00000BF00BF00BF0846806940F0040088615C
:101400000846806900F00400009000BF00BF00BFE4
:101410000846806940F0080088610846806900F04D
:101420000800009000BF00BF002220211248FFF7F3
:1014300055F94FF40050019010480290002003909D
:1014400001A90F48FEF7BAFF202001900120029069
:10145000002003900220049001A90748FEF7AEFF88
:10146000002205212820FFF7F5F92820FFF7E2F9EF
:1014700005B000BD0010024000080140000011103E
:101480000010014010B50B480B4908604FF4E130E3
:101490004860002108488160C16001610C21416100
:1014A00000218161C161FFF7ECFE08B1FEF774FF16
:1014B00010BD000000440040CC02002000BFFEE749
:1014C00000BFFEE708B508490968C9084FF47A72F9
:1014D000B1FBF2F14143009100BF00BF00994A1EE9
:1014E00000920029F9D108BD1400002000BF01229C
:1014F00020210748FFF7F2F8642000F050F900229D
:1015000020210348FFF7EAF8642000F048F9EEE7ED
:101510000008014000BF012000F041F9FBE7000096
:1015200010B500BF052080F31188BFF34F8FBFF3C4
:101530006F8F00BF00F038FF18B14FF080500449A2
:10154000086000BF002080F3118800BF10BD0000BC
:1015500004ED00E000B58FB0282105A8FEF7B2FE2B
:1015600014216846FEF7AEFE022005900120099086
:1015700010200A9002200C9000210D914FF4601170
:101580000E9105A8FFF7FEFA08B1FEF705FF0F2040
:10159000009002200190002002904FF480600390A0
:1015A0000020049002216846FFF7A6F908B1FEF773
:1015B000F3FE0FB000BD704710B50248FFF787FD7E
:1015C00010BD00001403002010B50268184B9842AB
:1015D00008D0B0F1804F05D0164B984202D0164B80
:1015E000984203D122F070024B681A43104B984284
:1015F00008D0B0F1804F05D00E4B984202D00E4B70
:10160000984203D122F44072CB681A4322F080033F
:101610004C6943EA040202608B68C3620B68836210
:10162000034B984201D10B6903630123436110BD51
:10163000002C0140000400400008004070B5044642
:101640002168096921F44051E2681143226811615F
:101650002269A1681143626941EA02052168C968EB
:1016600041F20C62914329432268D16021684969A3
:1016700021F44071A2691143226851612D4A216809
:10168000914202D1FFF736FA01E0FFF723FA00EBAF
:10169000C00101EB001162689200B1FBF2F100EBB6
:1016A000C00202EB001263689B00B2FBF3F26423FA
:1016B000B2FBF3F202EBC20303EB0212A1EB8201D5
:1016C000322202EB01116422B1FBF2F101F0F001D0
:1016D00000EBC00202EB001263689B00B2FBF3F266
:1016E0006423B2FBF3F201EB021200EBC00101EB49
:1016F000001163689B00B1FBF3F100EBC00303EB47
:1017000000136668B600B3FBF6F36426B3FBF6F38A
:1017100003EBC30606EB0313A1EB8301322303EBB8
:1017200001116423B1FBF3F101F00F0111442268B0
:10173000916070BD0038014000BFFEE702480068BC
:10174000C0F30220704700000CED00E010B5002847
:1017500004DB0A07130E054A135406E00A07140EA9
:10176000034A00F00F031B1FD45410BD00E400E037
:1017700018ED00E0FEF7CAFFFFF7ECFEFFF718FEDA
:10178000FFF780FEFFF7F2FD00F015F800BFFEE75F
:1017900001460020842901D0CA1C1044704770B54E
:1017A000044625460DB1294600E00121084600F017
:1017B0001FFC002070BD10B500F048FC002010BDDB
:1017C0007FB504460D46606998B1A06988B1B4F947
:1017D0000800FFF7DDFF0646D4E90510CDE90061FA
:1017E00002902B462269D4E9001000F081FD03909D
:1017F00013E0B4F90800FFF7CBFF064603A8CDE9D4
:101800000060238A9AB22B46D4E9001000F03EFD16
:10181000012802D0002004B070BD0398FBE700004F
:101820002DE9F04105460E461C4807681C48006833
:10183000001D00F0E1FA50B91948006890F82C102A
:101840000120884017490968814316480160681CD7
:1018500038B936B112480168091D134800F016FB6B
:101860001AE07C190E4800684460BC4207D20C485C
:101870000168091D0D48006800F0EEFA0CE0084808
:101880000168091D0A48006800F0E6FA0948006886
:10189000844201D207480460BDE8F0812C0000209A
:1018A0001800002030000020380400202000002014
:1018B0001C0000204800002010B5044600F0F2FA99
:1018C00023480068401C224908602248006840B94B
:1018D000204804600846006801280DD100F03AF95C
:1018E0000AE01D48006838B91A480068C06AE16A11
:1018F000884201D81748046018480068401C1749FE
:10190000086094F82C1001208840154909680843A4
:1019100013490860E16A01EB8101124A02EB810080
:10192000211D00F0B3FA00F0E7FA0B48006868B137
:1019300008480068C06AE16A884207D24FF08050C8
:1019400009490860BFF34F8FBFF36F8F10BD0000D0
:10195000280000201800002034000020440000204F
:10196000300000205C03002004ED00E010B516E01C
:1019700000F098FA0C48C068C468201D00F03CFADA
:101980000A480068401E0949086009480068401E6E
:101990000749086000F0B0FA204600F00BF8044850
:1019A00000680028E4D110BD240400202800002095
:1019B0002400002010B5044694F8510030B9206B83
:1019C00000F0B8FA204600F0B5FA1AE094F8510099
:1019D000012803D1204600F0ADFA12E094F851003E
:1019E000022801D1012000E0002050B900BF0520ED
:1019F00080F31188BFF34F8FBFF36F8F00BF00BF1D
:101A0000FEE710BD30B54FF44063174800F00704FF
:101A10002CB1C01D20F00700134C041B1B1B0246F9
:101A2000124C22600024114D6C60D018083820F050
:101A300007000F4C206000240D4D2D686C600C4D8C
:101A40002D682C601146441A4C60094C24680C60C7
:101A5000084D4C682C60084D4C682C604FF00044D9
:101A6000064D2C6030BD00004C04002054000020C6
:101A70005C0000206400002060000020680000205E
:101A800000BFFFF773FF064800680128F9D94FF03F
:101A9000805004490860BFF34F8FBFF36F8FF0E7AA
:101AA0005C03002004ED00E02DE9FF5F81460F4656
:101AB0009246DDE90E6B109CAAF10100216B01EB4F
:101AC000800828F0070808F0070008B9012000E0A6
:101AD000002050B900BF052080F31188BFF34F8F5D
:101AE000BFF36F8F00BF00BFFEE7002507E0795D01
:101AF00004F134004155785D00B902E06D1C102DF1
:101B0000F5D300BF002143200155072E00D3062640
:101B1000E66266640020A064201D00F09AF904F1DA
:101B2000180000F096F92461C6F10700A061646214
:101B30000020E06484F8500049464046039A00F0D3
:101B400049F92060BBF1000F01D0CBF80040BDE89F
:101B5000FF9F000010B5002407E004EB84010F4A4A
:101B600002EB810000F068F9641C072CF5D30C48E7
:101B700000F062F90B4800F05FF90B4800F05CF9E7
:101B80000A4800F059F90A4800F056F90448094992
:101B9000086004480849086010BD00005C0300208C
:101BA000E8030020FC03002010040020240400208F
:101BB000380400201C0000202000002010B5014641
:101BC000164800E0006803688B42FBD30246436876
:101BD00013448B4204D143684C682344436001465C
:101BE0000A464B6813440468A34211D10C4C0368A5
:101BF0002468A34208D04B680468646823444B609F
:101C000003681B680B6005E0054B1B680B6001E077
:101C100003680B60884200D0016010BD54000020B2
:101C20005C0000200A490968096809B9012100E03F
:101C3000002121B14FF0FF31064A116006E004494E
:101C40000968C968C868034A4168116070470000A4
:101C50001C000020480000200E480068401C08B905
:101C6000012000E0002050B900BF052080F311885A
:101C7000BFF34F8FBFF36F8F00BF00BFFEE700BF02
:101C8000052080F31188BFF34F8FBFF36F8F00BF24
:101C900000BFFEE76C0000202DE9F04104464FF044
:101CA000000800F02BFA4648006808B9FFF7AAFEC2
:101CB00044480068204000286BD1D4B1083404F0B7
:101CC0000700B0B104F00700C0F10800044404F0BC
:101CD000070008B9012000E0002050B900BF05202E
:101CE00080F31188BFF34F8FBFF36F8F00BF00BF2A
:101CF000FEE7002C4DD034480068844249D8334E6A
:101D00003046056801E02E462D686868A04202D280
:101D100028680028F7D12A480068854239D0306801
:101D200000F10808286830606868001B102819D97D
:101D30002F1907F0070008B9012000E0002050B972
:101D400000BF052080F31188BFF34F8FBFF36F8F63
:101D500000BF00BFFEE76868001B78606C60384613
:101D6000FFF72CFF184968680968081A16490860C7
:101D70000846006816490968884203D2124800687C
:101D8000134908600F4968680968084368600020C3
:101D9000286000F0ADFB08F0070008B9012000E062
:101DA000002050B900BF052080F31188BFF34F8F8A
:101DB000BFF36F8F00BF00BFFEE74046BDE8F08174
:101DC0005C0000206800002060000020540000201B
:101DD00064000020001F4FF080730360001F21F09B
:101DE00001030360001F034B0360143802602038B6
:101DF00070470000591C000801460A69D1E901300A
:101E00009860D1E9010358605068884201D1886820
:101E10005060002008611068401E10601068704714
:101E2000034B0360034B0B6080231360704700007B
:101E300078000020CC00002000F1080141604FF044
:101E4000FF31816000F10801C16001610021016082
:101E5000704700210161704710B502460B685C1C99
:101E60000CB9106907E002F1080000E0406844681E
:101E700024689C42FAD944684C604C68A160886030
:101E800041600A611468641C146010BD42684A60B5
:101E900093688B60936859609160086103685B1C6C
:101EA0000360704700BF052080F31188BFF34F8F98
:101EB000BFF36F8F00BF0E480068401C0C490860DC
:101EC00008460068012812D10A480068C0B208B963
:101ED000012000E0002050B900BF052080F31188E8
:101EE000BFF34F8FBFF36F8F00BF00BFFEE7704798
:101EF0006C00002004ED00E00D48006850B900BF00
:101F0000052080F31188BFF34F8FBFF36F8F00BFA1
:101F100000BFFEE706480068401E05490860084605
:101F2000006820B9002080F3118800BF00BF70470F
:101F30006C00002070B506463546002E3FD0083DA7
:101F40002C461F4960680968084008B1012000E07C
:101F5000002050B900BF052080F31188BFF34F8FD8
:101F6000BFF36F8F00BF00BFFEE7206808B90120F4
:101F700000E0002050B900BF052080F31188BFF3B6
:101F80004F8FBFF36F8F00BF00BFFEE70C49606843
:101F90000968084098B1206888B9094960680968EB
:101FA0008843606000F0AAF8064960680968084440
:101FB000044908602046FFF701FE00F099FA70BD61
:101FC000680000206000002000204FF0E021086140
:101FD0008861064800684FF47A71B0FBF1F0401E4A
:101FE0004FF0E0214861072008617047140000208D
:101FF00070B504460025D4B11248006808B9012024
:1020000000E0002050B900BF052080F31188BFF325
:102010004F8FBFF36F8F00BF00BFFEE700F06EF879
:1020200000212046FFF7FCFB00F062FA05463DB9AF
:102030004FF0805004490860BFF34F8FBFF36F8F9C
:1020400070BD00005000002004ED00E010B586B027
:1020500000200590049003AA04A905A8FFF7E0FE5C
:102060000022DDE904101346CDE9002102901CA1F5
:102070001D48039A00F03CF91C49086008460068B6
:1020800008B1012400E00024012C15D100BF052077
:1020900080F31188BFF34F8FBFF36F8F00BF4FF0F6
:1020A000FF301349086001201249086000201249DE
:1020B000086000F071F810E0601C08B1012000E039
:1020C000002050B900BF052080F31188BFF34F8F67
:1020D000BFF36F8F00BF00BFFEE706B010BD00006A
:1020E00049444C4500000000811A00084C000020C3
:1020F00048000020340000202C0000200248006826
:10210000401C014908607047500000201D480068CD
:1021100018B101201C49086032E000201A4908600B
:102120001A480068B0FA80F0C0F11F0101EB81008D
:10213000174A52F8200008B1012000E0002050B9F1
:1021400000BF052080F31188BFF34F8FBFF36F8F5F
:1021500000BF00BFFEE701EB81020D4B03EB8200E5
:1021600042685268426000F108024368934202D11B
:102170004268526842604268D268064B1A6000BFEB
:1021800070470000500000203C000020300000207C
:102190005C030020180000201CB537490846007871
:1021A0000190FF200A4610700846007800909DF8C4
:1021B00000009DF80020904201D1012000E00020A5
:1021C00050B900BF052080F31188BFF34F8FBFF3D4
:1021D0006F8F00BF00BFFEE79DF8000000F0050014
:1021E000264A10700720264A106009E0244800683B
:1021F000401E234A10609DF800004006000E00902B
:102200009DF8000000F080008028EFD01C48006896
:10221000C0F10700082801D1012000E0002050B9DA
:1022200000BF052080F31188BFF34F8FBFF36F8F7E
:1022300000BF00BFFEE7124800680002104A1060AD
:102240001046008800F4E06010600B4A019810709E
:102250000C48006840F47F000A490860084600689E
:1022600040F07F400860FFF7AFFE0020064908609D
:10227000FDF79CFF00201CBD00E400E07000002082
:102280007400002020ED00E06C0000202DE9FF4FDD
:1022900085B0804689461746DDE912ABB800FFF7E6
:1022A000FBFC064656B15420FFF7F6FC04460CB181
:1022B000266304E03046FFF73DFE00E000248CB1C9
:1022C000002084F85100CDE900ABCDE902403A4648
:1022D00049464046089BFFF7E7FB2046FFF7ECFA2C
:1022E000012501E04FF0FF35284609B0BDE8F08F29
:1022F0002DE9F04F85B00746884691469A46DDE9BC
:102300000EB6109C0EB1012000E0002050B900BFB5
:10231000052080F31188BFF34F8FBFF36F8F00BF8D
:1023200000BFFEE70CB1012000E0002050B900BF63
:10233000052080F31188BFF34F8FBFF36F8F00BF6D
:1023400000BFFEE7542003900398542801D10120D8
:1023500000E0002050B900BF052080F31188BFF3D2
:102360004F8FBFF36F8F00BF00BFFEE7B4B1AEB1B8
:1023700025462C462E63022085F85100002004A932
:1023800053464A46CDE900B1CDE9025041463846B0
:10239000FFF78AFB2846FFF78FFA01E00020049040
:1023A000049805B0BDE8F08F2DE9F0414FF000082A
:1023B00044480068002877D143480068451C4248DB
:1023C000056015BB41480068006808B9012000E0BD
:1023D000002050B900BF052080F31188BFF34F8F54
:1023E000BFF36F8F00BF00BFFEE73848076838486B
:1023F0000068364908603648076036480068401C67
:1024000034490860FFF70EFC00BF3348006885427E
:102410003CD300BF2D480068006808B9012000E0E7
:10242000002020B14FF0FF302B4908602DE02748F5
:102430000068C068C4686668B54202D22648066073
:1024400023E0201DFFF7D8FCA06A18B104F11800A2
:10245000FFF7D2FC94F82C10012088401F4909682E
:1024600008431E490860E16A01EB81011C4A02EB46
:102470008100211DFFF70AFD1A49E06A0968C96A4F
:102480008842C7D34FF00108C4E700BF1548006871
:10249000C06A00EB8000124951F82000012801D9E0
:1024A0004FF0010805E0FFE70F480068401C0E49A7
:1024B00008600E48006808B14FF001084046BDE8CA
:1024C000F0810000500000202C0000201C000020A3
:1024D00020000020400000204800002030000020A4
:1024E0005C03002018000020380000203C00002081
:1024F00070B5002400263648006850B900BF05209A
:1025000080F31188BFF34F8FBFF36F8F00BF00BF01
:10251000FEE7FFF7C7FC2E480068401E2C49086004
:102520000846006800284FD12A48006800284BD090
:1025300024E02948C068C46804F11800FFF75CFC77
:10254000201DFFF759FC94F82C10012088402349E6
:102550000968084321490860E16A01EB8101204ACA
:1025600002EB8100211DFFF791FC1E49E06A09681A
:10257000C96A884202D301201B49086016480068D6
:1025800008B9012000E000200028D2D00CB1FFF7EC
:1025900049FB1648056865B100BFFFF705FF10B19C
:1025A0000120114908606D1E002DF6D100200F4951
:1025B00008600D48006838B1012630070C490860F2
:1025C000BFF34F8FBFF36F8FFFF796FC304670BDA0
:1025D00050000020280000201004002030000020BF
:1025E0005C030020180000203C0000203800002080
:1025F00004ED00E06426000815150008FDFF00004A
:10260000000000008000000000000000000000004A
:1026100058260008ED14000800000000000000002B
:10262000800000000000000000000000020304051C
:10263000060708090A0B0C0D0E0F1010010200000E
:102640000000000000000102030406070809000062
:102650000000010203040000626C696E6B54617338
:102660006B00000064656661756C745461736B0087
:1026700090260008000000207800000028010008D3
:1026800008270008780000203816000044010008E0
:10269000000000000000000000000000100000002A
:1026A000010000000024F400000000000000000011
:1026B000000000000000000000000000000000001A
:1026C000000000000000000000000000000000000A
:1026D00000000000000000000000000000000000FA
:1026E00000000000000000000000000000000000EA
:1026F000000000000000000000000000AAAAAAAA32
:082700000000000000000000D1
:04000005080000ED02
:00000001FF
